{
  "contractName": "predictethsf",
  "abi": [
    {
      "constant": true,
      "inputs": [
        {
          "name": "",
          "type": "uint256"
        }
      ],
      "name": "teamInfo",
      "outputs": [
        {
          "name": "creator",
          "type": "address"
        },
        {
          "name": "teamName",
          "type": "string"
        },
        {
          "name": "totalBet",
          "type": "uint256"
        },
        {
          "name": "numBettors",
          "type": "uint256"
        }
      ],
      "payable": false,
      "stateMutability": "view",
      "type": "function"
    },
    {
      "constant": true,
      "inputs": [],
      "name": "owner",
      "outputs": [
        {
          "name": "",
          "type": "address"
        }
      ],
      "payable": false,
      "stateMutability": "view",
      "type": "function"
    },
    {
      "constant": true,
      "inputs": [],
      "name": "minimumBet",
      "outputs": [
        {
          "name": "",
          "type": "uint256"
        }
      ],
      "payable": false,
      "stateMutability": "view",
      "type": "function"
    },
    {
      "constant": true,
      "inputs": [],
      "name": "numTeams",
      "outputs": [
        {
          "name": "",
          "type": "uint256"
        }
      ],
      "payable": false,
      "stateMutability": "view",
      "type": "function"
    },
    {
      "inputs": [],
      "payable": false,
      "stateMutability": "nonpayable",
      "type": "constructor"
    },
    {
      "payable": true,
      "stateMutability": "payable",
      "type": "fallback"
    },
    {
      "anonymous": false,
      "inputs": [
        {
          "indexed": false,
          "name": "_numteams",
          "type": "uint256"
        },
        {
          "indexed": false,
          "name": "_sender",
          "type": "address"
        },
        {
          "indexed": false,
          "name": "_teamname",
          "type": "string"
        }
      ],
      "name": "NewTeam",
      "type": "event"
    },
    {
      "anonymous": false,
      "inputs": [
        {
          "indexed": false,
          "name": "_teamindex",
          "type": "uint256"
        },
        {
          "indexed": false,
          "name": "_sender",
          "type": "address"
        },
        {
          "indexed": false,
          "name": "_value",
          "type": "uint256"
        }
      ],
      "name": "Bet",
      "type": "event"
    },
    {
      "anonymous": false,
      "inputs": [
        {
          "indexed": false,
          "name": "_winner",
          "type": "address"
        },
        {
          "indexed": false,
          "name": "_value",
          "type": "uint256"
        }
      ],
      "name": "Payout",
      "type": "event"
    },
    {
      "constant": false,
      "inputs": [],
      "name": "kill",
      "outputs": [],
      "payable": false,
      "stateMutability": "nonpayable",
      "type": "function"
    },
    {
      "constant": false,
      "inputs": [
        {
          "name": "_newTeamName",
          "type": "string"
        }
      ],
      "name": "newTeam",
      "outputs": [],
      "payable": false,
      "stateMutability": "nonpayable",
      "type": "function"
    },
    {
      "constant": false,
      "inputs": [
        {
          "name": "teamNumber",
          "type": "uint256"
        },
        {
          "name": "_newTeamAddress",
          "type": "address"
        }
      ],
      "name": "changeTeamAddress",
      "outputs": [],
      "payable": false,
      "stateMutability": "nonpayable",
      "type": "function"
    },
    {
      "constant": false,
      "inputs": [
        {
          "name": "_teamSelected",
          "type": "uint256"
        }
      ],
      "name": "bet",
      "outputs": [],
      "payable": true,
      "stateMutability": "payable",
      "type": "function"
    },
    {
      "constant": false,
      "inputs": [
        {
          "name": "winningTeams",
          "type": "uint256[]"
        },
        {
          "name": "amountToWinningTeams",
          "type": "uint256"
        }
      ],
      "name": "payoutWinners",
      "outputs": [],
      "payable": false,
      "stateMutability": "nonpayable",
      "type": "function"
    },
    {
      "constant": false,
      "inputs": [
        {
          "name": "winningTeams",
          "type": "uint256[]"
        }
      ],
      "name": "distributePrizes",
      "outputs": [],
      "payable": false,
      "stateMutability": "nonpayable",
      "type": "function"
    },
    {
      "constant": true,
      "inputs": [
        {
          "name": "_team",
          "type": "uint256"
        }
      ],
      "name": "TeamTotalBet",
      "outputs": [
        {
          "name": "",
          "type": "uint256"
        }
      ],
      "payable": false,
      "stateMutability": "view",
      "type": "function"
    },
    {
      "constant": true,
      "inputs": [
        {
          "name": "_team",
          "type": "uint256"
        }
      ],
      "name": "TeamName",
      "outputs": [
        {
          "name": "",
          "type": "string"
        }
      ],
      "payable": false,
      "stateMutability": "view",
      "type": "function"
    },
    {
      "constant": true,
      "inputs": [
        {
          "name": "_team",
          "type": "uint256"
        }
      ],
      "name": "TeamCreator",
      "outputs": [
        {
          "name": "",
          "type": "address"
        }
      ],
      "payable": false,
      "stateMutability": "view",
      "type": "function"
    },
    {
      "constant": true,
      "inputs": [
        {
          "name": "_team",
          "type": "uint256"
        }
      ],
      "name": "TeamNumBettors",
      "outputs": [
        {
          "name": "",
          "type": "uint256"
        }
      ],
      "payable": false,
      "stateMutability": "view",
      "type": "function"
    }
  ],
  "bytecode": "0x6080604052600060035534801561001557600080fd5b50336000806101000a81548173ffffffffffffffffffffffffffffffffffffffff021916908373ffffffffffffffffffffffffffffffffffffffff160217905550655af3107a40006001819055506113bd806100726000396000f3006080604052600436106100d0576000357c0100000000000000000000000000000000000000000000000000000000900463ffffffff1680630c4aa509146100d257806341c0e1b51461014257806356567258146101595780635aa5bb39146101c65780635e9e5d6a146102ad578063661f86d6146103535780637365870b146103b957806378107d7c146103d95780638da5cb5b1461041a578063ad32bc5414610471578063b1348b77146104b2578063c17eb50c146104ff578063c38a8afd14610568578063dde91ab114610593575b005b3480156100de57600080fd5b5061014060048036038101908080359060200190820180359060200190808060200260200160405190810160405280939291908181526020018383602002808284378201915050505050509192919290803590602001909291905050506105be565b005b34801561014e57600080fd5b50610157610785565b005b34801561016557600080fd5b5061018460048036038101908080359060200190929190505050610816565b604051808273ffffffffffffffffffffffffffffffffffffffff1673ffffffffffffffffffffffffffffffffffffffff16815260200191505060405180910390f35b3480156101d257600080fd5b506101f160048036038101908080359060200190929190505050610856565b604051808573ffffffffffffffffffffffffffffffffffffffff1673ffffffffffffffffffffffffffffffffffffffff16815260200180602001848152602001838152602001828103825285818151815260200191508051906020019080838360005b8381101561026f578082015181840152602081019050610254565b50505050905090810190601f16801561029c5780820380516001836020036101000a031916815260200191505b509550505050505060405180910390f35b3480156102b957600080fd5b506102d86004803603810190808035906020019092919050505061093e565b6040518080602001828103825283818151815260200191508051906020019080838360005b838110156103185780820151818401526020810190506102fd565b50505050905090810190601f1680156103455780820380516001836020036101000a031916815260200191505b509250505060405180910390f35b34801561035f57600080fd5b506103b7600480360381019080803590602001908201803590602001908080602002602001604051908101604052809392919081815260200183836020028082843782019150505050505091929192905050506109f6565b005b6103d760048036038101908080359060200190929190505050610ddc565b005b3480156103e557600080fd5b5061040460048036038101908080359060200190929190505050610f70565b6040518082815260200191505060405180910390f35b34801561042657600080fd5b5061042f610f90565b604051808273ffffffffffffffffffffffffffffffffffffffff1673ffffffffffffffffffffffffffffffffffffffff16815260200191505060405180910390f35b34801561047d57600080fd5b5061049c60048036038101908080359060200190929190505050610fb5565b6040518082815260200191505060405180910390f35b3480156104be57600080fd5b506104fd60048036038101908080359060200190929190803573ffffffffffffffffffffffffffffffffffffffff169060200190929190505050610fd5565b005b34801561050b57600080fd5b50610566600480360381019080803590602001908201803590602001908080601f016020809104026020016040519081016040528093929190818152602001838380828437820191505050505050919291929050505061109e565b005b34801561057457600080fd5b5061057d61122e565b6040518082815260200191505060405180910390f35b34801561059f57600080fd5b506105a8611234565b6040518082815260200191505060405180910390f35b60003373ffffffffffffffffffffffffffffffffffffffff166000809054906101000a900473ffffffffffffffffffffffffffffffffffffffff1673ffffffffffffffffffffffffffffffffffffffff1614151561061b57600080fd5b600090505b8251811015610780577f5afeca38b2064c23a692c4cf353015d80ab3ecc417b4f893f372690c11fbd9a660026000858481518110151561065c57fe5b90602001906020020151815260200190815260200160002060000160009054906101000a900473ffffffffffffffffffffffffffffffffffffffff1683604051808373ffffffffffffffffffffffffffffffffffffffff1673ffffffffffffffffffffffffffffffffffffffff1681526020018281526020019250505060405180910390a16002600084838151811015156106f357fe5b90602001906020020151815260200190815260200160002060000160009054906101000a900473ffffffffffffffffffffffffffffffffffffffff1673ffffffffffffffffffffffffffffffffffffffff166108fc839081150290604051600060405180830381858888f19350505050158015610774573d6000803e3d6000fd5b50806001019050610620565b505050565b6000809054906101000a900473ffffffffffffffffffffffffffffffffffffffff1673ffffffffffffffffffffffffffffffffffffffff163373ffffffffffffffffffffffffffffffffffffffff161415610814576000809054906101000a900473ffffffffffffffffffffffffffffffffffffffff1673ffffffffffffffffffffffffffffffffffffffff16ff5b565b60006002600083815260200190815260200160002060000160009054906101000a900473ffffffffffffffffffffffffffffffffffffffff169050919050565b60026020528060005260406000206000915090508060000160009054906101000a900473ffffffffffffffffffffffffffffffffffffffff1690806001018054600181600116156101000203166002900480601f0160208091040260200160405190810160405280929190818152602001828054600181600116156101000203166002900480156109285780601f106108fd57610100808354040283529160200191610928565b820191906000526020600020905b81548152906001019060200180831161090b57829003601f168201915b5050505050908060020154908060030154905084565b6060600260008381526020019081526020016000206001018054600181600116156101000203166002900480601f0160208091040260200160405190810160405280929190818152602001828054600181600116156101000203166002900480156109ea5780601f106109bf576101008083540402835291602001916109ea565b820191906000526020600020905b8154815290600101906020018083116109cd57829003601f168201915b50505050509050919050565b6000610a006112a2565b610a086112c7565b60008060008060008060008060003373ffffffffffffffffffffffffffffffffffffffff166000809054906101000a900473ffffffffffffffffffffffffffffffffffffffff1673ffffffffffffffffffffffffffffffffffffffff16141515610a7157600080fd5b60009b506000985060009750600096505b600354871015610c285760009550600094505b8c51851015610acf578c85815181101515610aac57fe5b90602001906020020151871415610ac257600195505b8480600101955050610a95565b8515610bff57600093505b6002600088815260200190815260200160002060030154841015610bdf5760026000888152602001908152602001600020600401600085815260200190815260200160002060000160009054906101000a900473ffffffffffffffffffffffffffffffffffffffff168b8d6101f481101515610b5257fe5b602002019073ffffffffffffffffffffffffffffffffffffffff16908173ffffffffffffffffffffffffffffffffffffffff1681525050600260008881526020019081526020016000206004016000858152602001908152602001600020600101548a8d6101f481101515610bc357fe5b60200201818152505060018c019b508380600101945050610ada565b600260008881526020019081526020016000206002015488019750610c1b565b6002600088815260200190815260200160002060020154890198505b8680600101975050610a82565b610c3388603261123a565b9250610c3f8d846105be565b600091505b8b821015610dcd57600073ffffffffffffffffffffffffffffffffffffffff168b836101f481101515610c7357fe5b602002015173ffffffffffffffffffffffffffffffffffffffff16141515610dc057610ce5610cde8e516002026064036127108b6127108e02811515610cb557fe5b04612710018e876101f481101515610cc957fe5b602002015102811515610cd857fe5b04611264565b606461123a565b90507f5afeca38b2064c23a692c4cf353015d80ab3ecc417b4f893f372690c11fbd9a68b836101f481101515610d1757fe5b602002015182604051808373ffffffffffffffffffffffffffffffffffffffff1673ffffffffffffffffffffffffffffffffffffffff1681526020018281526020019250505060405180910390a18a826101f481101515610d7457fe5b602002015173ffffffffffffffffffffffffffffffffffffffff166108fc829081150290604051600060405180830381858888f19350505050158015610dbe573d6000803e3d6000fd5b505b8180600101925050610c44565b50505050505050505050505050565b60006001543410151515610def57600080fd5b60035482101515610dff57600080fd5b3460026000848152602001908152602001600020600201600082825401925050819055506002600083815260200190815260200160002060030154905034600260008481526020019081526020016000206004016000838152602001908152602001600020600101819055503360026000848152602001908152602001600020600401600083815260200190815260200160002060000160006101000a81548173ffffffffffffffffffffffffffffffffffffffff021916908373ffffffffffffffffffffffffffffffffffffffff160217905550600160026000848152602001908152602001600020600301600082825401925050819055507fca49f418dd97ad76b84ed6fb8e915ecccb519c5379cf6a4a455c2be7618fda2f823334604051808481526020018373ffffffffffffffffffffffffffffffffffffffff1673ffffffffffffffffffffffffffffffffffffffff168152602001828152602001935050505060405180910390a15050565b600060026000838152602001908152602001600020600201549050919050565b6000809054906101000a900473ffffffffffffffffffffffffffffffffffffffff1681565b600060026000838152602001908152602001600020600301549050919050565b6002600083815260200190815260200160002060000160009054906101000a900473ffffffffffffffffffffffffffffffffffffffff1673ffffffffffffffffffffffffffffffffffffffff163373ffffffffffffffffffffffffffffffffffffffff1614151561104557600080fd5b806002600084815260200190815260200160002060000160006101000a81548173ffffffffffffffffffffffffffffffffffffffff021916908373ffffffffffffffffffffffffffffffffffffffff1602179055505050565b8060026000600354815260200190815260200160002060010190805190602001906110ca9291906112ec565b506000600260006003548152602001908152602001600020600201819055503360026000600354815260200190815260200160002060000160006101000a81548173ffffffffffffffffffffffffffffffffffffffff021916908373ffffffffffffffffffffffffffffffffffffffff1602179055507f8c81f692c9063a2d41e52e0ea8b183d8585dac2d263243e2fa7695727b52f0f16003543383604051808481526020018373ffffffffffffffffffffffffffffffffffffffff1673ffffffffffffffffffffffffffffffffffffffff16815260200180602001828103825283818151815260200191508051906020019080838360005b838110156111de5780820151818401526020810190506111c3565b50505050905090810190601f16801561120b5780820380516001836020036101000a031916815260200191505b5094505050505060405180910390a1600160036000828254019250508190555050565b60015481565b60035481565b60008060008311151561124c57600080fd5b828481151561125757fe5b0490508091505092915050565b6000806000841415611279576000915061129b565b828402905082848281151561128a57fe5b0414151561129757600080fd5b8091505b5092915050565b613e80604051908101604052806101f490602082028038833980820191505090505090565b613e80604051908101604052806101f490602082028038833980820191505090505090565b828054600181600116156101000203166002900490600052602060002090601f016020900481019282601f1061132d57805160ff191683800117855561135b565b8280016001018555821561135b579182015b8281111561135a57825182559160200191906001019061133f565b5b509050611368919061136c565b5090565b61138e91905b8082111561138a576000816000905550600101611372565b5090565b905600a165627a7a723058204e58546009049296571bc82ecd8f656e30e5a4ad886513cf71652feb47d43ebf0029",
  "source": "pragma solidity ^0.4.24;\n\n/**\n * @title SafeMath\n * @dev Math operations with safety checks that revert on error\n */\nlibrary SafeMath {\n\n  /**\n  * @dev Multiplies two numbers, reverts on overflow.\n  */\n  function mul(uint256 a, uint256 b) internal pure returns (uint256) {\n    // Gas optimization: this is cheaper than requiring 'a' not being zero, but the\n    // benefit is lost if 'b' is also tested.\n    // See: https://github.com/OpenZeppelin/openzeppelin-solidity/pull/522\n    if (a == 0) {\n      return 0;\n    }\n\n    uint256 c = a * b;\n    require(c / a == b);\n\n    return c;\n  }\n\n  /**\n  * @dev Integer division of two numbers truncating the quotient, reverts on division by zero.\n  */\n  function div(uint256 a, uint256 b) internal pure returns (uint256) {\n    require(b > 0); // Solidity only automatically asserts when dividing by 0\n    uint256 c = a / b;\n    // assert(a == b * c + a % b); // There is no case in which this doesn't hold\n\n    return c;\n  }\n\n  /**\n  * @dev Subtracts two numbers, reverts on overflow (i.e. if subtrahend is greater than minuend).\n  */\n  function sub(uint256 a, uint256 b) internal pure returns (uint256) {\n    require(b <= a);\n    uint256 c = a - b;\n\n    return c;\n  }\n\n  /**\n  * @dev Adds two numbers, reverts on overflow.\n  */\n  function add(uint256 a, uint256 b) internal pure returns (uint256) {\n    uint256 c = a + b;\n    require(c >= a);\n\n    return c;\n  }\n\n  /**\n  * @dev Divides two numbers and returns the remainder (unsigned integer modulo),\n  * reverts when dividing by zero.\n  */\n  function mod(uint256 a, uint256 b) internal pure returns (uint256) {\n    require(b != 0);\n    return a % b;\n  }\n}\n\ncontract predictethsf {\n  event NewTeam(\n    uint256 _numteams,\n    address _sender,\n    string _teamname\n  );\n\n  event Bet(\n    uint256 _teamindex,\n    address _sender,\n    uint256 _value\n  );\n\n  event Payout(\n    address _winner,\n    uint256 _value\n  );\n\n  // Define a bettor\n  struct Bettor {\n    address bettorAddress;\n    uint256 amountBet;\n  }\n\n  // Define a team\n  struct Team {\n    address creator;\n    string teamName;\n    uint256 totalBet;\n    uint256 numBettors;\n    mapping(uint256 => Bettor) bettorInfo;\n  }\n\n  // Set necessary parameters\n  address public owner;\n  uint256 public minimumBet;\n  mapping(uint256 => Team) public teamInfo;\n  uint256 public numTeams = 0;\n\n  // Deploy the contract\n  function() public payable {}\n  function predictethsf() public {\n    owner = msg.sender;\n    minimumBet = 100000000000000;\n  }\n\n  function kill() public {\n    if(msg.sender == owner) selfdestruct(owner);\n  }\n\n  // Create a new team\n  function newTeam(string _newTeamName) public {\n    teamInfo[numTeams].teamName = _newTeamName;\n    teamInfo[numTeams].totalBet = 0;\n    teamInfo[numTeams].creator = msg.sender;\n    emit NewTeam(numTeams, msg.sender, _newTeamName);\n    numTeams += 1;\n  }\n\n  function changeTeamAddress(uint256 teamNumber, address _newTeamAddress) public {\n    require(msg.sender == teamInfo[teamNumber].creator);\n    teamInfo[teamNumber].creator = _newTeamAddress;\n  }\n\n  // Add a new bet to a team\n  function bet(uint256 _teamSelected) public payable {\n    // Check that the bet is above the minimum\n    require(msg.value >= minimumBet);\n    require(_teamSelected < numTeams);\n\n    // Add to the total of the team the amount bet\n    teamInfo[_teamSelected].totalBet += msg.value;\n\n    // Set the bettor information\n    uint256 numBettors = teamInfo[_teamSelected].numBettors;\n    teamInfo[_teamSelected].bettorInfo[numBettors].amountBet = msg.value;\n    teamInfo[_teamSelected].bettorInfo[numBettors].bettorAddress = msg.sender;\n\n    // Add the bettor to the teams' bettor list\n    teamInfo[_teamSelected].numBettors += 1;\n    emit Bet(_teamSelected, msg.sender, msg.value);\n  }\n\n  function payoutWinners(uint256[] winningTeams, uint256 amountToWinningTeams) public {\n    require(owner == msg.sender);\n    for (uint256 n = 0; n < winningTeams.length; ++n) {\n      Payout(teamInfo[winningTeams[n]].creator, amountToWinningTeams);\n      teamInfo[winningTeams[n]].creator.transfer(amountToWinningTeams);\n    }\n  }\n\n  // Distribute prizes amongst the winners\n  function distributePrizes(uint256[] winningTeams) public {\n    require(owner == msg.sender);\n    // This is a list of winners and a list of the amounts they bet\n    uint256 count = 0;\n    address[500] memory winningBettors;\n    uint256[500] memory amountsBet;\n\n    // This will take the value of all losers bet\n    uint256 loserBet = 0;\n\n    // This will take the value of all winners bet\n    uint256 winnerBet = 0;\n\n    // Loop through the teams who didn't win to find the total losing bet\n    for (uint256 i = 0; i < numTeams; i++) {\n      bool winner = false;\n      for (uint256 j = 0; j < winningTeams.length; j++) {\n        if (i == winningTeams[j]) {\n          winner = true;\n        }\n      }\n      if (winner) {\n        for (uint256 k = 0; k < teamInfo[i].numBettors; k++) {\n          winningBettors[count] = teamInfo[i].bettorInfo[k].bettorAddress;\n          amountsBet[count] = teamInfo[i].bettorInfo[k].amountBet;\n          count += 1;\n        }\n        // Add the amount to the total winning bet\n        winnerBet += teamInfo[i].totalBet;\n      }\n      else {\n        // Add the amount to the total losing bet\n        loserBet += teamInfo[i].totalBet;\n      }\n    }\n    uint256 amountToWinningTeams = SafeMath.div(winnerBet, 50);\n    payoutWinners(winningTeams, amountToWinningTeams);\n\n    // Loop through winners, and disperse the ETH\n    for (uint256 m = 0; m < count; m++) {\n        // Check that the address in this fixed array is not empty\n       if (winningBettors[m] != address(0)) {\n          // Transfer the requisite amount of ETH to the winner\n          uint256 amountToPay = SafeMath.div(SafeMath.mul((100 - (2 * winningTeams.length)), amountsBet[m]*(10000+(loserBet*10000/winnerBet))/10000), 100);\n          Payout(winningBettors[m], amountToPay);\n          winningBettors[m].transfer(amountToPay);\n       }\n    }\n  }\n\n  function TeamTotalBet(uint256 _team) public view returns(uint256){\n    return teamInfo[_team].totalBet;\n  }\n\n  function TeamName(uint256 _team) public view returns(string){\n    return teamInfo[_team].teamName;\n  }\n\n  function TeamCreator(uint256 _team) public view returns(address){\n    return teamInfo[_team].creator;\n  }\n\n  function TeamNumBettors(uint256 _team) public view returns(uint256){\n    return teamInfo[_team].numBettors;\n  }\n}\n",
  "sourcePath": "/Users/izak/Documents/personal_projects/preditctethsf/truffle/contracts/predictethsf.sol",
  "compiler": {
    "name": "solc",
    "version": "0.4.24+commit.e67f0147.Emscripten.clang"
  },
  "schemaVersion": "2.0.0",
  "updatedAt": "2018-10-07T02:20:59.712Z"
}